:100000000C9434000C9451000C9451000C94510049
:100010000C9451000C9451000C9451000C9451001C
:100020000C9451000C9451000C9451000C9451000C
:100030000C9451000C9451000C9451000C945100FC
:100040000C9451000C9451000C9474000C945100C9
:100050000C9451000C9451000C9451000C945100DC
:100060000C9451000C94510011241FBECFEFD8E026
:10007000DEBFCDBF12E0A0E0B1E0EEE1FCE002C0E7
:1000800005900D92A035B107D9F722E0A0E5B2E0C6
:1000900001C01D92A335B207E1F70E9488010C94BC
:1000A0000D060C94000087E690E09093C5008093C5
:1000B000C40088E98093C10086E08093C20008955F
:1000C0009091C00095FFFCCF8093C6000895CF9318
:1000D000DF93EC0103C00E946000219688818111AA
:1000E000FACFDF91CF9108951F920F920FB60F9222
:1000F00011248F938091C600809352028F910F90AC
:100100000FBE0F901F90189580E480937C0087E8C5
:1001100080937A000895ECE7F0E09081907F9083DF
:100120009081892B8083EAE7F0E08081806480837E
:1001300080917A0086FDFCCF8091780090917900C3
:100140000895109251021092500280E091E00E94B6
:10015000670029C0809152028823E1F38091520206
:10016000823649F481E090E09093510280935002EE
:100170001092520218C0809152028F7385B98091FB
:100180005202982F92959695969593702BB1892F40
:1001900090E0880F991F880F991F922F937F892BCA
:1001A0008BB9109252028091500290915102892B8A
:1001B00089F2089587E391E00E9467008EE491E060
:1001C0000E94670008950F931F93CF93DF93CDB7DD
:1001D000DEB72A970FB6F894DEBF0FBECDBF1092E0
:1001E0005102109250028FE591E00E94670087E76C
:1001F00091E00E94670081E991E00E946700809190
:1002000052028823E1F3809152021092520281330C
:1002100091F585EC91E00E94670026C080E00E9485
:100220008B00282F2F7325B90024880F991F001CDD
:10023000880F991F001C892F902D83702BB190E09F
:10024000880F991F880F991F922F937F892B8BB945
:1002500080915202823641F481E090E09093510205
:10026000809350021092520280915002909151025C
:10027000892BA1F240C08233F1F582E092E00E9426
:10028000670080E00E948B00BC0180E090E00E944B
:100290001A0220E030E040EA50E40E94A80220E088
:1002A00030EC4FE754E40E94A8019F938F937F9313
:1002B0006F9388E392E09F938F931F928AE08F93CE
:1002C0008E010F5F1F4F1F930F930E941503C801EC
:1002D0000E9467008FE392E00E94670081E090E057
:1002E0009093510280935002109252020FB6F894EC
:1002F000DEBF0FBECDBF0E94DA002A960FB6F8947B
:10030000DEBF0FBECDBFDF91CF911F910F9108953A
:1003100078940E9453000E9484008FE384B98AB1CC
:100320008C608AB90E94DA00809152028823E1F33E
:1003300080915202813319F40E94E30006C080913B
:100340005202823311F40E94A10010925202EACFAD
:100350000E94BC010C946E020E94670258F00E9439
:10036000600240F029F45F3F29F00C9457025111CC
:100370000C94A2020C945D020E947F0268F3992300
:10038000B1F3552391F3951B550BBB27AA27621791
:100390007307840738F09F5F5F4F220F331F441F9E
:1003A000AA1FA9F335D00E2E3AF0E0E832D09150D2
:1003B0005040E695001CCAF72BD0FE2F29D0660FBF
:1003C000771F881FBB1F261737074807AB07B0E802
:1003D00009F0BB0B802DBF01FF2793585F4F3AF008
:1003E0009E3F510578F00C9457020C94A2025F3F97
:1003F000E4F3983ED4F3869577956795B795F7958E
:100400009F5FC9F7880F911D9695879597F9089575
:10041000E1E0660F771F881FBB1F62177307840711
:10042000BA0720F0621B730B840BBA0BEE1F88F720
:10043000E0950895E89409C097FB3EF49095809567
:10044000709561957F4F8F4F9F4F9923A9F0F92F9A
:1004500096E9BB279395F695879577956795B79518
:10046000F111F8CFFAF4BB0F11F460FF1BC06F5FFE
:100470007F4F8F4F9F4F16C0882311F096E911C010
:10048000772321F09EE8872F762F05C0662371F031
:1004900096E8862F70E060E02AF09A95660F771F45
:1004A000881FDAF7880F9695879597F9089597F939
:1004B0009F6780E870E060E008959FEF80EC08950A
:1004C00000240A9416161706180609060895002433
:1004D0000A9412161306140605060895092E0394AD
:1004E000000C11F4882352F0BB0F40F4BF2B11F421
:1004F00060FF04C06F5F7F4F8F4F9F4F089557FD80
:100500009058440F551F59F05F3F71F04795880F81
:1005100097FB991F61F09F3F79F087950895121618
:1005200013061406551FF2CF4695F1DF08C01616C4
:1005300017061806991FF1CF869571056105089475
:100540000895E894BB2766277727CB0197F908958C
:100550000E94BB020C946E020E94600238F00E945E
:10056000670220F0952311F00C9457020C945D0261
:1005700011240C94A2020E947F0270F3959FC1F394
:10058000950F50E0551F629FF001729FBB27F00D41
:10059000B11D639FAA27F00DB11DAA1F649F662796
:1005A000B00DA11D661F829F2227B00DA11D621FE5
:1005B000739FB00DA11D621F839FA00D611D221F9F
:1005C000749F3327A00D611D231F849F600D211D83
:1005D000822F762F6A2F11249F5750409AF0F1F006
:1005E00088234AF0EE0FFF1FBB1F661F771F881F6F
:1005F00091505040A9F79E3F510580F00C9457024E
:100600000C94A2025F3FE4F3983ED4F3869577956D
:100610006795B795F795E7959F5FC1F7FE2B880F14
:10062000911D9695879597F90895AEE0B0E0EBE1BE
:10063000F3E00C94E4050D891E898F89988D26E0DE
:100640002C831A83098397FF02C080E090E801970A
:100650009E838D83AE01455E5F4F698D7A8DCE019D
:1006600001960E9445034D815E8157FD0AC02F818E
:100670003885421753070CF49A01F801E20FF31F73
:1006800010822E96E4E00C940006ABE0B0E0EBE4C0
:10069000F3E00C94D6056C017B018A01FC01178202
:1006A0001682838181FFCCC1CE0101963C01F60107
:1006B0009381F70193FD859193FF81917F018823B9
:1006C00009F4BAC1853239F493FD859193FF819184
:1006D0007F01853229F4B60190E00E943C05E7CF06
:1006E000912C212C312CFFE1F315D8F08B3279F0CD
:1006F00038F4803279F08332A1F4232D20611DC0BB
:100700008D3261F0803369F4232D216016C0832D72
:100710008260382EE32DE4603E2E2AC0F32DF8606F
:100720001DC037FC2DC020ED280F2A3040F08E323E
:10073000B9F436FC81C1232D2064322E19C036FE57
:1007400006C08AE0989E200D1124922E11C0EAE086
:100750002E9E200D1124222EF32DF0623F2E08C074
:100760008C3621F4832D8068382E02C0883641F4FF
:10077000F70193FD859193FF81917F018111B3CFA3
:10078000982F9F7D9554933028F40C5F1F4F9FE363
:1007900099830DC0833631F0833771F0833509F0CA
:1007A00059C021C0F801808189830E5F1F4F8824C2
:1007B0008394912C530113C02801F2E04F0E511C79
:1007C000F801A080B18036FE03C0692D70E002C040
:1007D0006FEF7FEFC5010E9431054C018201F32DBF
:1007E000FF773F2E16C0280122E0420E511CF8016F
:1007F000A080B18036FE03C0692D70E002C06FEFAB
:100800007FEFC5010E9426054C01F32DF0683F2EB5
:10081000820133FC1BC0822D90E088169906B0F44B
:10082000B60180E290E00E943C052A94F4CFF501E5
:1008300037FC859137FE81915F01B60190E00E94FF
:100840003C0521102A9421E0821A91088114910418
:1008500071F7E8C0843611F0893641F5F80137FEAA
:1008600007C060817181828193810C5F1F4F08C036
:1008700060817181072E000C880B990B0E5F1F4F52
:10088000F32DFF763F2E97FF09C0909580957095C8
:1008900061957F4F8F4F9F4FF0683F2E2AE030E0E9
:1008A000A3010E947805882E861845C0853731F44B
:1008B000232D2F7EB22E2AE030E025C0932D997F84
:1008C000B92E8F36C1F018F4883579F0B5C080376D
:1008D00019F0883721F0B0C0E92FE061BE2EB4FED8
:1008E0000DC0FB2DF460BF2E09C034FE0AC0292FB5
:1008F0002660B22E06C028E030E005C020E130E0DE
:1009000002C020E132E0F801B7FE07C060817181CA
:10091000828193810C5F1F4F06C06081718180E0EE
:1009200090E00E5F1F4FA3010E947805882E861865
:10093000FB2DFF773F2E36FE0DC0232D2E7FA22EDE
:10094000891458F434FE0BC032FC09C0832D8E7E0E
:10095000A82E05C0B82CA32C03C0B82C01C0B92CFC
:10096000A4FE0FC0FE01E80DF11D8081803321F44B
:100970009A2D997EA92E09C0A2FE06C0B394B39405
:1009800004C08A2D867809F0B394A3FC11C0A0FEA0
:1009900006C0B21488F4280C922C9B180EC0B21416
:1009A00060F4B60180E290E00E943C05B394F7CF7A
:1009B000B21418F42B1802C0982C212CA4FE10C0DD
:1009C000B60180E390E00E943C05A2FE17C0A1FCA6
:1009D00003C088E790E002C088E590E0B6010CC053
:1009E0008A2D867859F0A1FE02C08BE201C080E218
:1009F000A7FC8DE2B60190E00E943C05891438F412
:100A0000B60180E390E00E943C059A94F7CF8A9467
:100A1000F301E80DF11D8081B60190E00E943C05D4
:100A20008110F5CF222009F442CEB60180E290E099
:100A30000E943C052A94F6CFF6018681978102C078
:100A40008FEF9FEF2B96E2E10C94F205FC010590ED
:100A5000615070400110D8F7809590958E0F9F1FC0
:100A60000895FC016150704001900110D8F7809505
:100A700090958E0F9F1F08950F931F93CF93DF9331
:100A8000FB01238121FD03C08FEF9FEF2CC022FFCC
:100A900016C046815781248135814217530744F49B
:100AA000A081B1819D012F5F3F4F318320838C93C3
:100AB000268137812F5F3F4F3783268314C08B01F8
:100AC000EC01FB010084F185E02D0995892BE1F60D
:100AD000D80116968D919C911797019617969C9325
:100AE0008E931697CE01DF91CF911F910F910895AC
:100AF000FA01AA27283051F1203181F1E8946F934F
:100B00006E7F6E5F7F4F8F4F9F4FAF4FB1E03ED0F4
:100B1000B4E03CD0670F781F891F9A1FA11D680F92
:100B2000791F8A1F911DA11D6A0F711D811D911DC5
:100B3000A11D20D009F468943F912AE0269F11243A
:100B40003019305D3193DEF6CF010895462F47709E
:100B5000405D4193B3E00FD0C9F7F6CF462F4F70F9
:100B6000405D4A3318F0495D31FD4052419302D057
:100B7000A9F7EACFB4E0A6959795879577956795FD
:100B8000BA95C9F700976105710508959B01AC01FD
:100B90000A2E06945795479537952795BA95C9F724
:100BA000620F731F841F951FA01D08952F923F92FF
:100BB0004F925F926F927F928F929F92AF92BF926D
:100BC000CF92DF92EF92FF920F931F93CF93DF9319
:100BD000CDB7DEB7CA1BDB0B0FB6F894DEBF0FBE76
:100BE000CDBF09942A88398848885F846E847D84C3
:100BF0008C849B84AA84B984C884DF80EE80FD80C5
:100C00000C811B81AA81B981CE0FD11D0FB6F8943A
:0E0C1000DEBF0FBECDBFED010895F894FFCFFB
:100C1E00496E677265736520756E20636172E1635C
:100C2E007465722C2070726573696F6E6520276211
:100C3E0027207061726120766F6C76657220616C10
:100C4E00206D656EFA0A00312E204C6565722050BB
:100C5E006F74656E6369F36D6574726F0A00322E80
:100C6E0020456E766961722041534349490A004D11
:100C7E00656EFA20646520506F74656E6369F36D5E
:100C8E006574726F3A0A00312E20416A7573746171
:100C9E007220506F74656E6369F36D6574726F0ABE
:100CAE0000322E20456E766961722076616C6F720D
:100CBE002064656C20706F74656E6369F36D657486
:100CCE00726F2061206C6120636F6D70757461644A
:100CDE006F72610A0056617269616E646F20656C95
:100CEE0020706F74656E6369F36D6574726F2C207E
:100CFE0070726573696F6E6520276227207061724E
:100D0E006120766F6C76657220616C206D656EFA6F
:100D1E000A00456E7669616E646F2076616C6F7243
:100D2E002064656C20706F74656E6369F36D657415
:100D3E00726F2061206C6120636F6D7075746164D9
:100D4E006F72612E2E2E0A00252E3266560A00561E
:100D5E00616C6F7220656E766961646F2E0A000099
:00000001FF
