:100000000C9434000C9446000C9446000C9446006A
:100010000C9446000C9446000C9446000C94460048
:100020000C9446000C9446000C9446000C94460038
:100030000C9446000C9446000C9446000C94460028
:100040000C9446000C9446000C945C000C94460002
:100050000C9446000C9446000C9446000C94460008
:100060000C9446000C94460011241FBECFEFD8E03C
:10007000DEBFCDBF21E0A0E0B1E001C01D92A13004
:10008000B207E1F70E949A000C94A3000C940000C0
:1000900087E690E09093C5008093C40088E9809340
:1000A000C10086E08093C20008959091C00095FF42
:1000B000FCCF8093C60008951F920F920FB60F9247
:1000C00011242F933F934F935F936F937F938F935D
:1000D0009F93AF93BF93EF93FF938091C60080935C
:1000E00000018F7385B980910001982F92959695A4
:1000F000969593702BB1892F90E0880F991F880FE8
:10010000991F922F937F892B8BB9809100010E94B8
:100110005500FF91EF91BF91AF919F918F917F918A
:100120006F915F914F913F912F910F900FBE0F9064
:100130001F90189578940E9448008FE384B98AB183
:0A0140008C608AB9FFCFF894FFCF5E
:00000001FF
